:020000040800F2
:10000000000003207107000891060008930600080D
:1000100095060008970600089906000800000000F1
:100020000000000000000000000000009B06000827
:100030009D060008000000009F060008A1060008B9
:10004000C1070008C1070008C1070008C107000870
:10005000C1070008C1070008C1070008C107000860
:10006000C1070008C1070008C1070008C107000850
:10007000C1070008C1070008C1070008C107000840
:10008000C1070008C1070008C1070008C107000830
:10009000C1070008C1070008C1070008C107000820
:1000A000C1070008A9060008C1070008C107000829
:1000B000C1070008C1070008C1070008C107000800
:1000C000C1070008C1070008C1070008C1070008F0
:1000D000C1070008C1070008C1070008C1070008E0
:1000E000C1070008C1070008C1070008C1070008D0
:1000F000C1070008C1070008C1070008C1070008C0
:10010000C1070008C1070008C1070008C1070008AF
:10011000C1070008C1070008C1070008C10700089F
:10012000C1070008C1070008C1070008C10700088F
:10013000C1070008C1070008C1070008C10700087F
:10014000C1070008C1070008C1070008C10700086F
:10015000C1070008C1070008C1070008C10700085F
:10016000C1070008C1070008C1070008C10700084F
:10017000C1070008C1070008C1070008000000000F
:10018000C1070008C1070008C1070008C10700082F
:10019000C1070008C1070008C1070008C10700081F
:0C01A0000000000000000000C107000883
:1001AC0010B5054C237833B9044B13B10448AFF3A5
:1001BC0000800123237010BD1000002000000000FF
:1001CC003817000808B5034B1BB103490348AFF3BC
:1001DC00008008BD00000000140000203817000843
:1001EC0053B94AB9002908BF00281CBF4FF0FF3192
:1001FC004FF0FF3000F06AB9ADF1080C6DE904CE98
:10020C0000F006F8DDF804E0DDE9022304B07047E5
:10021C002DE9F047089D0C46002B4ED194468C4599
:10022C008646B2FA82F262D94AB1C2F120039140F9
:10023C0020FA03F30CFA02FC194300FA02FE4FEA0F
:10024C001C471FFA8CF6B1FBF7F44FEA1E4307FB71
:10025C00141143EA014304FB06F199420AD91CEB41
:10026C00030304F1FF3080F01281994240F20F81B8
:10027C00023C6344591A1FFA8EF3B1FBF7F007FBEB
:10028C00101143EA014300FB06F69E420AD91CEB0F
:10029C00030300F1FF3180F0FC809E4240F2F980B4
:1002AC00634402389B1B40EA044000211DB1D3403B
:1002BC000022C5E90032BDE8F0878B4205D90DB1AB
:1002CC00C5E9000100210846F5E7B3FA83F10029DE
:1002DC0046D1A34202D39042C0F0F080861A64EB60
:1002EC0003030120002DE6D0C5E90063E3E7002AF3
:1002FC0040F09080A1EB0C044FEA1C481FFA8CF7DD
:10030C000121B4FBF8F64FEA1E4308FB164443EAFE
:10031C00044307FB06F0984208D91CEB030306F1D3
:10032C00FF3402D2984200F2CD8026461C1A1FFAE6
:10033C008EF3B4FBF8F008FB104443EA044300FBD3
:10034C0007F79F4208D91CEB030300F1FF3402D2DC
:10035C009F4200F2B0802046DB1B40EA0640A5E736
:10036C00C1F120068B4022FA06F71F4320FA06FC47
:10037C0004FA01F343EA0C03F44000FA01F8380CD8
:10038C004FEA1349B4FBF0FE1FFA87FC00FB1E4436
:10039C0049EA04440EFB0CF9A14502FA01F20AD910
:1003AC003C190EF1FF3A80F08480A14540F2818027
:1003BC00AEF1020E3C44A4EB09041FFA83F9B4FB22
:1003CC00F0F300FB134449EA044403FB0CFCA44582
:1003DC0007D93C1903F1FF3067D2A44565D9023B1C
:1003EC003C4443EA0E40A0FB0293A4EB0C049C4259
:1003FC00CE469C4651D34ED055B1B8EB0E0364EBB0
:10040C000C0404FA06F6CB401E43CC40C5E900644C
:10041C00002150E7C2F1200320FA03F10CFA02FC90
:10042C0024FA03F394400C434FEA1C4800FA02FEF2
:10043C001FFA8CF7B3FBF8F008FB1031230C43EADE
:10044C00014300FB07F1994208D91CEB030300F1AF
:10045C00FF362CD299422AD9023863445B1AA4B2D3
:10046C00B3FBF8F108FB113344EA034401FB07F337
:10047C00A34208D91CEB040401F1FF3613D2A342AA
:10048C0011D902396444E41A41EA004139E70446BF
:10049C00F0E6084606E7C845AED2B9EB020E63EBB0
:1004AC00070C0138A8E73146EDE7034699E73046DB
:1004BC00D4E7D6467FE7634402384DE70646234629
:1004CC0008460FE7023E634430E700BF704700BFA9
:1004DC00F0B58BB000240594069407940894099405
:1004EC000194264B1A6B42F001021A631A6B02F04C
:1004FC0001020192019A02941A6B42F080021A6373
:10050C001A6B02F080020292029A03941A6B42F068
:10051C0010021A631A6B02F010020392039A0494ED
:10052C001A6B42F020021A631B6B03F02003049336
:10053C00049B134F01224FF40061384600F010FB6E
:10054C00104D01224FF48041284600F009FB4FF476
:10055C0000630593012606960794089405A938466E
:10056C0000F0F8F94FF4804305930696079408942D
:10057C0005A9284600F0EEF90BB0F0BD003802409A
:10058C00001002400014024072B6FEE700B595B0B0
:10059C003022002108A801F037F8002303930493BC
:1005AC000593069307930193214A116C41F08051F6
:1005BC001164126C02F080520192019A02931D4A4E
:1005CC00136823F4404343F400431360136803F4AB
:1005DC0040430293029B012308934FF48033099309
:1005EC0002230E934FF480020F9208221092B42231
:1005FC00119212930423139308A800F0B7FA98B938
:10060C000F23039302230493002305934FF4A05369
:10061C0006934FF480530793042103A800F0F6FCD3
:10062C0020B915B05DF804FBFFF7AEFFFFF7ACFF88
:10063C00003802400070004008B500F0E3F8FFF706
:10064C00A5FFFFF745FF00F033F8FEE782B000216D
:10065C0000910B4B5A6C42F480425A645A6C02F46F
:10066C0080420092009A01911A6C42F080521A64F6
:10067C001B6C03F080530193019B02B0704700BFC9
:10068C0000380240FEE7FEE7FEE7FEE7FEE77047B4
:10069C007047704708B500F0CFF808BD08B50248A0
:1006AC0000F096FD08BD00BF2C0000207047000034
:1006BC0000B587B000230293039304930593009332
:1006CC0001931648164A026044F24F6242608360FE
:1006DC0042F20F72C26003614361836100F094FEC9
:1006EC0090B94FF48053029302A90C4800F0C4FE59
:1006FC0068B90023009301936946084800F03CFF59
:10070C0040B907B05DF804FBFFF73EFFE9E7FFF7E0
:10071C003BFFEEE7FFF738FFF3E700BF2C000020AC
:10072C000000014002680E4B9A4200D0704700B5A1
:10073C0083B00021019103F59C335A6C42F0010205
:10074C005A645B6C03F001030193019B0A46192068
:10075C0000F0D8F8192000F0E5F803B05DF804FBC0
:10076C0000000140DFF834D0FFF7A0FF0C480D4922
:10077C000D4A002302E0D458C4500433C4188C42F0
:10078C00F9D30A4A0A4C002301E013600432A24256
:10079C00FBD300F041FFFFF74FFF70470000032031
:1007AC00000000201000002074170008100000202A
:1007BC0010020020FEE7000010B504460E4B1A781C
:1007CC004FF47A73B3FBF2F30C4A1068B0FBF3F0FE
:1007DC0000F0ACF868B90F2C01D901200AE0002216
:1007EC0021464FF0FF3000F08DF8054B1C600020C7
:1007FC0000E0012010BD00BF04000020000000201C
:10080C000800002008B50B4B1A6842F400721A60FD
:10081C001A6842F480621A601A6842F480721A6094
:10082C00032000F05DF80F20FFF7C6FFFFF70EFF67
:10083C00002008BD003C0240034A1168034B1B78A2
:10084C000B441360704700BF7400002004000020AC
:10085C00014B1868704700BF74000020002807DBAC
:10086C0000F01F02400901239340024A42F8203055
:10087C00704700BF00E100E0002808DB0901C9B2A5
:10088C0000F1604000F5614080F80013704700F003
:10089C000F000901C9B2014B1954704714ED00E067
:1008AC0000B500F00700C0F1070CBCF1040F28BF25
:1008BC004FF0040C031D062B0FD9C31E4FF0FF3E47
:1008CC000EFA0CF021EA000199400EFA03FE22EA1E
:1008DC000E0241EA02005DF804FB0023EEE7000083
:1008EC00074AD36823F4E0631B041B0C000200F4DA
:1008FC00E060034343F0BF6343F40033D3607047BD
:10090C0000ED00E010B50446054BD868C0F302209A
:10091C00FFF7C6FF01462046FFF7AEFF10BD00BF34
:10092C0000ED00E008B5FFF799FF08BD0138B0F104
:10093C00807F0BD24FF0E0235861054AF02182F8FA
:10094C0023100020986107221A617047012070471C
:10095C0000ED00E000230F2B00F2F98030B583B0DE
:10096C0069E085684FEA430E032404FA0EF425EA85
:10097C000405CC6804FA0EF42C438460446824EA21
:10098C0002044A68C2F300129A402243426060E0BB
:10099C00DC08083450F8242003F00705AD004FF0B4
:1009AC000F0E0EFA05FE22EA0E0E0A69AA4042EA62
:1009BC000E0240F8242060E0092200E0002202FA36
:1009CC000EF22A430234624D45F82420614A9468A1
:1009DC006FEA0C0224EA0C05D1F804E01EF4801F27
:1009EC0001D04CEA04055B4CA560E46802EA0405FE
:1009FC00D1F804E01EF4001F01D04CEA0405554C5C
:100A0C00E560646802EA0405D1F804E01EF4003FD6
:100A1C0001D04CEA04054F4C6560246822404D68B7
:100A2C0015F4803F01D04CEA04024A4C2260013399
:100A3C000F2B00F28A8001229A400C6804EA020C07
:100A4C0032EA0404F3D14C6804F00304013C012C99
:100A5C0087D94A6802F00302032A09D0C4685D00F2
:100A6C000322AA4024EA02048A68AA402243C260F4
:100A7C004A6802F00302022A8AD004684FEA430E45
:100A8C00032202FA0EF224EA02044A6802F003027C
:100A9C0002FA0EF2224302604A6812F4403FC6D0BA
:100AAC00002201922C4A546C44F480445464526CDD
:100ABC0002F480420192019A9C08A51C244A52F827
:100ACC00255003F0030E4FEA8E0E0F2202FA0EF29F
:100ADC0025EA0205214A90423FF470AF02F580628C
:100AEC00904222D002F58062904220D002F58062C2
:100AFC0090421ED002F5806290421CD002F58062BA
:100B0C0090421AD002F58062904218D002F58062B1
:100B1C00904216D002F58062904214D002F58062A9
:100B2C0090423FF449AF0A2249E7012247E70222EB
:100B3C0045E7032243E7042241E705223FE706226B
:100B4C003DE707223BE7082239E703B030BD704789
:100B5C0000380140003C01400038024000000240D7
:100B6C000AB181617047090481617047002800F067
:100B7C00E08170B582B00446036813F0010F3BD0DE
:100B8C009F4B9B6803F00C03042B2CD09C4B9B6855
:100B9C0003F00C03082B21D06368B3F5803F4FD0D2
:100BAC00B3F5A02F52D0964B1A6822F480321A60FB
:100BBC001A6822F480221A606368002B50D0FFF769
:100BCC0047FE05468E4B1B6813F4003F14D1FFF70C
:100BDC003FFE401B6428F5D90320B1E1884B5B68CC
:100BEC0013F4800FD8D0864B1B6813F4003F03D04E
:100BFC006368002B00F09F81236813F0020F54D020
:100C0C007F4B9B6813F00C0F3ED07D4B9B6803F021
:100C1C000C03082B33D0E368002B68D0794B0122EE
:100C2C001A60FFF715FE0546754B1B6813F0020F93
:100C3C0054D1FFF70DFE401B0228F5D903207FE1AC
:100C4C006F4A136843F480331360B5E76C4B1A6832
:100C5C0042F480221A601A6842F480321A60ABE7C0
:100C6C00FFF7F6FD0546664B1B6813F4003FC3D037
:100C7C00FFF7EEFD401B6428F5D9032060E1604BC3
:100C8C005B6813F4800FC6D15D4B1B6813F0020F29
:100C9C0003D0E368012B40F05081594A136823F0CC
:100CAC00F803216943EAC1031360236813F0080FAA
:100CBC0042D063696BB3534B0122C3F8802EFFF70C
:100CCC00C7FD05464E4B5B6F13F0020F34D1FFF797
:100CDC00BFFD401B0228F5D9032031E1484A1368B7
:100CEC0023F0F803216943EAC1031360DDE7454BA8
:100CFC0000221A60FFF7ACFD0546414B1B6813F050
:100D0C00020FD2D0FFF7A4FD401B0228F5D9032017
:100D1C0016E13C4B0022C3F8802EFFF799FD0546E7
:100D2C00374B5B6F13F0020F06D0FFF791FD401BA2
:100D3C000228F5D9032003E1236813F0040F77D0C0
:100D4C002F4B1B6C13F0805F33D1002301932C4B82
:100D5C001A6C42F080521A641B6C03F0805301939E
:100D6C00019B0125284B1B6813F4807F23D0A368BB
:100D7C00012B34D0052B38D0214B1A6F22F00102F5
:100D8C001A671A6F22F004021A67A368002B3DD071
:100D9C00FFF75EFD06461A4B1B6F13F0020F46D190
:100DAC00FFF756FD801B41F288339842F3D903209C
:100DBC00C6E00025D6E7144A136843F48073136029
:100DCC00FFF746FD0646104B1B6813F4807FCED10F
:100DDC00FFF73EFD801B0228F5D90320B0E0084A3E
:100DEC00136F43F001031367CFE7054B1A6F42F003
:100DFC0004021A671A6F42F001021A67C5E700BFB6
:100E0C00003802400000474200700040FFF720FD10
:100E1C000646524B1B6F13F0020F08D0FFF718FD5C
:100E2C00801B41F288339842F3D9032088E0EDB956
:100E3C00A369002B00F08380484A926802F00C02F0
:100E4C00082A51D0022B17D0454B00221A66FFF707
:100E5C00FFFC0446414B1B6813F0007F42D0FFF7A8
:100E6C00F7FC001B0228F5D9032069E03B4A136C00
:100E7C0023F080531364DBE7394B00221A66FFF72B
:100E8C00E7FC0546354B1B6813F0007F06D0FFF7D7
:100E9C00DFFC401B0228F5D9032051E0E369226AEC
:100EAC001343626A43EA8213A26A5208013A43EA84
:100EBC000243E26A43EA0263284A5360284B012248
:100ECC001A66FFF7C5FC0446244B1B6813F0007F21
:100EDC0006D1FFF7BDFC001B0228F5D903202FE03B
:100EEC0000202DE000202BE0012B2BD01B4B5B684E
:100EFC0003F48001E269914226D103F03F02216A9A
:100F0C008A4223D1616A47F6C0721A40B2EB811F44
:100F1C001ED103F44031A26A5208013AB1EB024FE0
:100F2C0018D103F07063E26AB3EB026F14D10020A6
:100F3C0006E001207047012002E0012000E00020C3
:100F4C0002B070BD0120FBE70120F9E70120F7E7B3
:100F5C000120F5E70120F3E70120F1E7003802401A
:100F6C000000474208B5264B9B6803F00C03042B8A
:100F7C0041D0082B41D1224B5A6802F03F025B68EA
:100F8C0013F4800F12D01E4B5968C1F388111D4801
:100F9C000023A1FB0001FFF723F9194B5B68C3F396
:100FAC00014301335B00B0FBF3F027E0144B5868AE
:100FBC00C0F388104FEA401CBCEB000C6EEB0E0E1D
:100FCC004FEA8E1343EA9C634FEA8C11B1EB0C0190
:100FDC0063EB0E03DB0043EA5173C90011EB000C09
:100FEC0043F10003990200234FEA8C2041EA9C5103
:100FFC00FFF7F6F8D1E7034800E0034808BD00BF4F
:10100C0000380240001BB7000024F400002800F058
:10101C009B8070B50D4604464F4B1B6803F00F03C5
:10102C008B4208D2CBB24C4A1370136803F00F03F7
:10103C008B4240F08B80236813F0020F17D013F013
:10104C00040F04D0454A936843F4E053936023683B
:10105C0013F0080F04D0414A936843F46043936043
:10106C003E4A936823F0F003A1680B439360236816
:10107C0013F0010F32D06368012B21D09A1E012A84
:10108C0025D9364A126812F0020F61D033498A68AA
:10109C0022F0030213438B60FFF7DAFB06462F4B5B
:1010AC009B6803F00C036268B3EB820F16D0FFF75A
:1010BC00CFFB801B41F288339842F0D9032042E0E9
:1010CC00264A126812F4003FE0D101203BE0234A8B
:1010DC00126812F0007FD9D1012034E01E4B1B683E
:1010EC0003F00F03AB4207D9EAB21B4B1A701B6813
:1010FC0003F00F03AB422DD1236813F0040F06D07D
:10110C00164A936823F4E053E1680B439360236819
:10111C0013F0080F07D0114A936823F46043216938
:10112C0043EAC1039360FFF71DFF0C4B9B68C3F3AD
:10113C0003130B4AD35CD8400A4B18600A4B18684F
:10114C00FFF73AFB002070BD012070470120FAE741
:10115C000120F8E70120F6E7003C0240003802408D
:10116C0050170008000000200800002010B4036A8B
:10117C00046A24F001040462846924F0F00C4CEA43
:10118C00021223F00A030B438261036210BC704706
:10119C0010B4036A046A24F010040462846924F411
:1011AC00704C4CEA023223F0A00343EA0113826133
:1011BC00036210BC7047836823F070030B4343F049
:1011CC0007038360704770477047704770477047DC
:1011DC0070B504460368DE681D6915F0020F10D067
:1011EC0016F0020F0DD06FF002021A610123037783
:1011FC0003689B6913F0030F5ED0FFF7E6FF002333
:10120C00237715F0040F12D016F0040F0FD02368BB
:10121C006FF004021A610223237723689B6913F48D
:10122C00407F4FD02046FFF7D0FF0023237715F0E7
:10123C00080F12D016F0080F0FD023686FF00802B9
:10124C001A61042323772368DB6913F0030F40D062
:10125C002046FFF7BAFF0023237715F0100F12D0AA
:10126C0016F0100F0FD023686FF010021A610823CC
:10127C0023772368DB6913F4407F31D02046FFF7D6
:10128C00A4FF0023237715F0010F02D016F0010FF5
:10129C002DD115F0800F02D016F0800F2FD115F044
:1012AC00400F02D016F0400F31D115F0200F02D0B4
:1012BC0016F0200F33D170BDFFF786FF2046FFF7E5
:1012CC0085FF9CE72046FFF77FFF2046FFF77EFF58
:1012DC00ABE72046FFF778FF2046FFF777FFBAE72A
:1012EC002046FFF771FF2046FFF770FFC9E7236820
:1012FC006FF001021A612046FFF765FFC9E723680A
:10130C006FF080021A61204600F07DF9C7E7236870
:10131C006FF040021A612046FFF759FFC5E72368BA
:10132C006FF020021A61204600F06CF9C3E7000050
:10133C000368344A904212D0B0F1804F0FD0A2F51E
:10134C007C4290420BD002F58062904207D002F5AD
:10135C008062904203D002F57842904203D123F090
:10136C0070034A681343274A90422AD0B0F1804F49
:10137C0027D0A2F57C42904223D002F580629042A5
:10138C001FD002F5806290421BD002F57842904249
:10139C0017D002F57052904213D002F58062904241
:1013AC000FD002F5806290420BD0A2F59832904299
:1013BC0007D002F58062904203D002F58062904221
:1013CC0003D123F44073CA68134323F080034A69A2
:1013DC00134303608B68C3620B688362094B9842AA
:1013EC0003D003F58063984201D10B690363012399
:1013FC004361036913F0010F03D0036923F0010368
:10140C00036170470000014040B310B5044690F8EA
:10141C003D30F3B1022384F83D30214651F8040BE2
:10142C00FFF786FF012384F8463084F83E3084F8B9
:10143C003F3084F8403084F8413084F8423084F8EE
:10144C00433084F8443084F8453084F83D30002033
:10145C0010BD80F83C30FFF765F9DBE701207047E1
:10146C0010B4846824F47F4C42EA03220A4342EA13
:10147C000C02826010BC704790F83C30012B78D085
:10148C0010B50446012380F83C30022380F83D302F
:10149C000268936823F47F4323F0770393600B680F
:1014AC00602B4CD029D8402B54D00CD9502B22D1A6
:1014BC00CA6849680068FFF759FE50212068FFF799
:1014CC007AFE002005E0202B0DD009D9302B0AD054
:1014DC000120012384F83D30002384F83C3010BDFA
:1014EC000BB1102B05D119462068FFF764FE0020C4
:1014FC00EFE70120EDE70120EBE7B3F5805F34D097
:10150C00B3F5005F0CD1CB684A6889680068FFF7B7
:10151C00A7FF2268936843F4804393600020D8E7C8
:10152C00702B24D1CB684A6889680068FFF798FF54
:10153C002268936843F0770393600020C9E7CA6878
:10154C0049680068FFF724FE60212068FFF733FE2E
:10155C000020BEE7CA6849680068FFF707FE402113
:10156C002068FFF728FE0020B3E70020B1E7012038
:10157C00AFE702207047000090F83C20012A3CD0D5
:10158C0010B40346012280F83C20022280F83D2052
:10159C0002685068946820F0700C086840EA0C00EF
:1015AC0050601A68164882421AD0B2F1804F17D098
:1015BC00A0F57C40824213D000F5806082420FD0AF
:1015CC0000F5806082420BD000F57840824207D053
:1015DC0000F57050824203D0A0F59430824204D1C1
:1015EC0024F08004496821439160012283F83D2056
:1015FC00002083F83C0010BC70470220704700BFED
:10160C00000001407047704702440346934200D1EA
:10161C00704703F8011BF9E770B50D4D0D4C641BB9
:10162C00A4100026A64209D10B4D0C4C00F07EF8FC
:10163C00641BA4100026A64205D170BD55F8043BCE
:10164C0098470136EEE755F8043B98470136F2E728
:10165C00681700086817000868170008701700085A
:10166C0070477047024B13B1024800F005B8704741
:10167C000000000091160008002301461A46184687
:10168C0000F014B838B5074D074C641BA4101CB9F6
:10169C00BDE8384000F050B8013C55F8243098476C
:1016AC00F5E700BF70170008741700082DE9F04724
:1016BC00DFF86CA00646DAF8000098460F46914613
:1016CC00FFF7CEFF174B1C680CB9174C1C606568F4
:1016DC00DAF800001F2D05DDFFF7C3FF4FF0FF30D8
:1016EC00BDE8F0879EB104EB85010122C1F888901A
:1016FC00D4F88831AA401343C4F88831022EC1F8BB
:10170C00088102BFD4F88C311343C4F88C316B1CA4
:10171C000235636044F82570FFF7A3FF0020DFE774
:10172C000C0000207C00002080000020F8B500BFD9
:10173C00F8BC08BC9E467047F8B500BFF8BC08BCA6
:04174C009E467047FE
:101750000000000000000000010203040607080961
:08176000BCEAFF7F010000005C
:0817680071160008D101000810
:04177000AD010008BF
:101774000024F400010000001000000078000020A4
:040000050800077177
:00000001FF
